{
    "_format": "hh-sol-artifact-1",
    "contractName": "NftMarketplace",
    "sourceName": "contracts/NftMarketplace.sol",
    "abi": [
        {
            "inputs": [],
            "stateMutability": "nonpayable",
            "type": "constructor"
        },
        {
            "anonymous": false,
            "inputs": [
                {
                    "indexed": true,
                    "internalType": "address",
                    "name": "owner",
                    "type": "address"
                },
                {
                    "indexed": true,
                    "internalType": "address",
                    "name": "approved",
                    "type": "address"
                },
                {
                    "indexed": true,
                    "internalType": "uint256",
                    "name": "tokenId",
                    "type": "uint256"
                }
            ],
            "name": "Approval",
            "type": "event"
        },
        {
            "anonymous": false,
            "inputs": [
                {
                    "indexed": true,
                    "internalType": "address",
                    "name": "owner",
                    "type": "address"
                },
                {
                    "indexed": true,
                    "internalType": "address",
                    "name": "operator",
                    "type": "address"
                },
                {
                    "indexed": false,
                    "internalType": "bool",
                    "name": "approved",
                    "type": "bool"
                }
            ],
            "name": "ApprovalForAll",
            "type": "event"
        },
        {
            "anonymous": false,
            "inputs": [
                {
                    "indexed": false,
                    "internalType": "uint256",
                    "name": "_fromTokenId",
                    "type": "uint256"
                },
                {
                    "indexed": false,
                    "internalType": "uint256",
                    "name": "_toTokenId",
                    "type": "uint256"
                }
            ],
            "name": "BatchMetadataUpdate",
            "type": "event"
        },
        {
            "anonymous": false,
            "inputs": [
                {
                    "indexed": false,
                    "internalType": "uint256",
                    "name": "_tokenId",
                    "type": "uint256"
                }
            ],
            "name": "MetadataUpdate",
            "type": "event"
        },
        {
            "anonymous": false,
            "inputs": [
                {
                    "indexed": true,
                    "internalType": "uint256",
                    "name": "tokenId",
                    "type": "uint256"
                },
                {
                    "indexed": false,
                    "internalType": "address payable",
                    "name": "seller",
                    "type": "address"
                },
                {
                    "indexed": false,
                    "internalType": "address payable",
                    "name": "owner",
                    "type": "address"
                },
                {
                    "indexed": false,
                    "internalType": "uint256",
                    "name": "price",
                    "type": "uint256"
                },
                {
                    "indexed": false,
                    "internalType": "address[]",
                    "name": "subscribers",
                    "type": "address[]"
                },
                {
                    "indexed": false,
                    "internalType": "uint256",
                    "name": "likes",
                    "type": "uint256"
                },
                {
                    "indexed": false,
                    "internalType": "string",
                    "name": "title",
                    "type": "string"
                },
                {
                    "indexed": false,
                    "internalType": "string",
                    "name": "description",
                    "type": "string"
                }
            ],
            "name": "NftStructCreated",
            "type": "event"
        },
        {
            "anonymous": false,
            "inputs": [
                {
                    "indexed": true,
                    "internalType": "address",
                    "name": "from",
                    "type": "address"
                },
                {
                    "indexed": true,
                    "internalType": "address",
                    "name": "to",
                    "type": "address"
                },
                {
                    "indexed": true,
                    "internalType": "uint256",
                    "name": "tokenId",
                    "type": "uint256"
                }
            ],
            "name": "Transfer",
            "type": "event"
        },
        {
            "inputs": [
                {
                    "internalType": "address",
                    "name": "to",
                    "type": "address"
                },
                {
                    "internalType": "uint256",
                    "name": "tokenId",
                    "type": "uint256"
                }
            ],
            "name": "approve",
            "outputs": [],
            "stateMutability": "nonpayable",
            "type": "function"
        },
        {
            "inputs": [
                {
                    "internalType": "address",
                    "name": "owner",
                    "type": "address"
                }
            ],
            "name": "balanceOf",
            "outputs": [
                {
                    "internalType": "uint256",
                    "name": "",
                    "type": "uint256"
                }
            ],
            "stateMutability": "view",
            "type": "function"
        },
        {
            "inputs": [
                {
                    "internalType": "uint256",
                    "name": "_tokenId",
                    "type": "uint256"
                }
            ],
            "name": "buySubscription",
            "outputs": [
                {
                    "internalType": "bool",
                    "name": "",
                    "type": "bool"
                }
            ],
            "stateMutability": "payable",
            "type": "function"
        },
        {
            "inputs": [
                {
                    "internalType": "string",
                    "name": "_tokenURI",
                    "type": "string"
                },
                {
                    "internalType": "string",
                    "name": "_title",
                    "type": "string"
                },
                {
                    "internalType": "string",
                    "name": "_description",
                    "type": "string"
                }
            ],
            "name": "createNft",
            "outputs": [],
            "stateMutability": "nonpayable",
            "type": "function"
        },
        {
            "inputs": [
                {
                    "internalType": "uint256",
                    "name": "tokenId",
                    "type": "uint256"
                }
            ],
            "name": "getApproved",
            "outputs": [
                {
                    "internalType": "address",
                    "name": "",
                    "type": "address"
                }
            ],
            "stateMutability": "view",
            "type": "function"
        },
        {
            "inputs": [],
            "name": "getCollectables",
            "outputs": [
                {
                    "components": [
                        {
                            "internalType": "uint256",
                            "name": "tokenId",
                            "type": "uint256"
                        },
                        {
                            "internalType": "address payable",
                            "name": "seller",
                            "type": "address"
                        },
                        {
                            "internalType": "address payable",
                            "name": "owner",
                            "type": "address"
                        },
                        {
                            "internalType": "uint256",
                            "name": "price",
                            "type": "uint256"
                        },
                        {
                            "internalType": "address[]",
                            "name": "subscribers",
                            "type": "address[]"
                        },
                        {
                            "internalType": "uint256",
                            "name": "likes",
                            "type": "uint256"
                        },
                        {
                            "internalType": "string",
                            "name": "title",
                            "type": "string"
                        },
                        {
                            "internalType": "string",
                            "name": "description",
                            "type": "string"
                        },
                        {
                            "internalType": "string",
                            "name": "tokenUri",
                            "type": "string"
                        }
                    ],
                    "internalType": "struct NftMarketplace.nftStruct[]",
                    "name": "",
                    "type": "tuple[]"
                }
            ],
            "stateMutability": "view",
            "type": "function"
        },
        {
            "inputs": [
                {
                    "internalType": "uint256",
                    "name": "_tokenId",
                    "type": "uint256"
                }
            ],
            "name": "getIndividualNFT",
            "outputs": [
                {
                    "components": [
                        {
                            "internalType": "uint256",
                            "name": "tokenId",
                            "type": "uint256"
                        },
                        {
                            "internalType": "address payable",
                            "name": "seller",
                            "type": "address"
                        },
                        {
                            "internalType": "address payable",
                            "name": "owner",
                            "type": "address"
                        },
                        {
                            "internalType": "uint256",
                            "name": "price",
                            "type": "uint256"
                        },
                        {
                            "internalType": "address[]",
                            "name": "subscribers",
                            "type": "address[]"
                        },
                        {
                            "internalType": "uint256",
                            "name": "likes",
                            "type": "uint256"
                        },
                        {
                            "internalType": "string",
                            "name": "title",
                            "type": "string"
                        },
                        {
                            "internalType": "string",
                            "name": "description",
                            "type": "string"
                        },
                        {
                            "internalType": "string",
                            "name": "tokenUri",
                            "type": "string"
                        }
                    ],
                    "internalType": "struct NftMarketplace.nftStruct",
                    "name": "",
                    "type": "tuple"
                }
            ],
            "stateMutability": "view",
            "type": "function"
        },
        {
            "inputs": [],
            "name": "getNfts",
            "outputs": [
                {
                    "components": [
                        {
                            "internalType": "uint256",
                            "name": "tokenId",
                            "type": "uint256"
                        },
                        {
                            "internalType": "address payable",
                            "name": "seller",
                            "type": "address"
                        },
                        {
                            "internalType": "address payable",
                            "name": "owner",
                            "type": "address"
                        },
                        {
                            "internalType": "uint256",
                            "name": "price",
                            "type": "uint256"
                        },
                        {
                            "internalType": "address[]",
                            "name": "subscribers",
                            "type": "address[]"
                        },
                        {
                            "internalType": "uint256",
                            "name": "likes",
                            "type": "uint256"
                        },
                        {
                            "internalType": "string",
                            "name": "title",
                            "type": "string"
                        },
                        {
                            "internalType": "string",
                            "name": "description",
                            "type": "string"
                        },
                        {
                            "internalType": "string",
                            "name": "tokenUri",
                            "type": "string"
                        }
                    ],
                    "internalType": "struct NftMarketplace.nftStruct[]",
                    "name": "",
                    "type": "tuple[]"
                }
            ],
            "stateMutability": "view",
            "type": "function"
        },
        {
            "inputs": [],
            "name": "getSubscriptions",
            "outputs": [
                {
                    "components": [
                        {
                            "internalType": "uint256",
                            "name": "tokenId",
                            "type": "uint256"
                        },
                        {
                            "internalType": "address payable",
                            "name": "seller",
                            "type": "address"
                        },
                        {
                            "internalType": "address payable",
                            "name": "owner",
                            "type": "address"
                        },
                        {
                            "internalType": "uint256",
                            "name": "price",
                            "type": "uint256"
                        },
                        {
                            "internalType": "address[]",
                            "name": "subscribers",
                            "type": "address[]"
                        },
                        {
                            "internalType": "uint256",
                            "name": "likes",
                            "type": "uint256"
                        },
                        {
                            "internalType": "string",
                            "name": "title",
                            "type": "string"
                        },
                        {
                            "internalType": "string",
                            "name": "description",
                            "type": "string"
                        },
                        {
                            "internalType": "string",
                            "name": "tokenUri",
                            "type": "string"
                        }
                    ],
                    "internalType": "struct NftMarketplace.nftStruct[]",
                    "name": "",
                    "type": "tuple[]"
                }
            ],
            "stateMutability": "view",
            "type": "function"
        },
        {
            "inputs": [
                {
                    "internalType": "address",
                    "name": "owner",
                    "type": "address"
                },
                {
                    "internalType": "address",
                    "name": "operator",
                    "type": "address"
                }
            ],
            "name": "isApprovedForAll",
            "outputs": [
                {
                    "internalType": "bool",
                    "name": "",
                    "type": "bool"
                }
            ],
            "stateMutability": "view",
            "type": "function"
        },
        {
            "inputs": [
                {
                    "internalType": "uint256",
                    "name": "_tokenId",
                    "type": "uint256"
                }
            ],
            "name": "likeSubscription",
            "outputs": [],
            "stateMutability": "nonpayable",
            "type": "function"
        },
        {
            "inputs": [],
            "name": "name",
            "outputs": [
                {
                    "internalType": "string",
                    "name": "",
                    "type": "string"
                }
            ],
            "stateMutability": "view",
            "type": "function"
        },
        {
            "inputs": [
                {
                    "internalType": "uint256",
                    "name": "tokenId",
                    "type": "uint256"
                }
            ],
            "name": "ownerOf",
            "outputs": [
                {
                    "internalType": "address",
                    "name": "",
                    "type": "address"
                }
            ],
            "stateMutability": "view",
            "type": "function"
        },
        {
            "inputs": [
                {
                    "internalType": "address",
                    "name": "from",
                    "type": "address"
                },
                {
                    "internalType": "address",
                    "name": "to",
                    "type": "address"
                },
                {
                    "internalType": "uint256",
                    "name": "tokenId",
                    "type": "uint256"
                }
            ],
            "name": "safeTransferFrom",
            "outputs": [],
            "stateMutability": "nonpayable",
            "type": "function"
        },
        {
            "inputs": [
                {
                    "internalType": "address",
                    "name": "from",
                    "type": "address"
                },
                {
                    "internalType": "address",
                    "name": "to",
                    "type": "address"
                },
                {
                    "internalType": "uint256",
                    "name": "tokenId",
                    "type": "uint256"
                },
                {
                    "internalType": "bytes",
                    "name": "data",
                    "type": "bytes"
                }
            ],
            "name": "safeTransferFrom",
            "outputs": [],
            "stateMutability": "nonpayable",
            "type": "function"
        },
        {
            "inputs": [
                {
                    "internalType": "uint256",
                    "name": "_tokenId",
                    "type": "uint256"
                },
                {
                    "internalType": "uint64",
                    "name": "duration",
                    "type": "uint64"
                }
            ],
            "name": "sellSubscription",
            "outputs": [
                {
                    "internalType": "uint256",
                    "name": "",
                    "type": "uint256"
                }
            ],
            "stateMutability": "payable",
            "type": "function"
        },
        {
            "inputs": [
                {
                    "internalType": "address",
                    "name": "operator",
                    "type": "address"
                },
                {
                    "internalType": "bool",
                    "name": "approved",
                    "type": "bool"
                }
            ],
            "name": "setApprovalForAll",
            "outputs": [],
            "stateMutability": "nonpayable",
            "type": "function"
        },
        {
            "inputs": [
                {
                    "internalType": "bytes4",
                    "name": "interfaceId",
                    "type": "bytes4"
                }
            ],
            "name": "supportsInterface",
            "outputs": [
                {
                    "internalType": "bool",
                    "name": "",
                    "type": "bool"
                }
            ],
            "stateMutability": "view",
            "type": "function"
        },
        {
            "inputs": [],
            "name": "symbol",
            "outputs": [
                {
                    "internalType": "string",
                    "name": "",
                    "type": "string"
                }
            ],
            "stateMutability": "view",
            "type": "function"
        },
        {
            "inputs": [
                {
                    "internalType": "uint256",
                    "name": "tokenId",
                    "type": "uint256"
                }
            ],
            "name": "tokenURI",
            "outputs": [
                {
                    "internalType": "string",
                    "name": "",
                    "type": "string"
                }
            ],
            "stateMutability": "view",
            "type": "function"
        },
        {
            "inputs": [
                {
                    "internalType": "address",
                    "name": "from",
                    "type": "address"
                },
                {
                    "internalType": "address",
                    "name": "to",
                    "type": "address"
                },
                {
                    "internalType": "uint256",
                    "name": "tokenId",
                    "type": "uint256"
                }
            ],
            "name": "transferFrom",
            "outputs": [],
            "stateMutability": "nonpayable",
            "type": "function"
        },
        {
            "inputs": [
                {
                    "internalType": "uint256",
                    "name": "_tokenId",
                    "type": "uint256"
                }
            ],
            "name": "unlikeSubscription",
            "outputs": [],
            "stateMutability": "nonpayable",
            "type": "function"
        }
    ],
    "bytecode": "0x60806040523480156200001157600080fd5b506040518060400160405280601981526020017f4e4654204d6167617a696e6520537562736372697074696f6e000000000000008152506040518060400160405280600381526020017f4d4147000000000000000000000000000000000000000000000000000000000081525081600090816200008f919062000368565b508060019081620000a1919062000368565b505050620000bb6007620000d860201b62001f231760201c565b620000d26009620000d860201b62001f231760201c565b6200044f565b6001816000016000828254019250508190555050565b600081519050919050565b7f4e487b7100000000000000000000000000000000000000000000000000000000600052604160045260246000fd5b7f4e487b7100000000000000000000000000000000000000000000000000000000600052602260045260246000fd5b600060028204905060018216806200017057607f821691505b60208210810362000186576200018562000128565b5b50919050565b60008190508160005260206000209050919050565b60006020601f8301049050919050565b600082821b905092915050565b600060088302620001f07fffffffffffffffffffffffffffffffffffffffffffffffffffffffffffffffff82620001b1565b620001fc8683620001b1565b95508019841693508086168417925050509392505050565b6000819050919050565b6000819050919050565b600062000249620002436200023d8462000214565b6200021e565b62000214565b9050919050565b6000819050919050565b620002658362000228565b6200027d620002748262000250565b848454620001be565b825550505050565b600090565b6200029462000285565b620002a18184846200025a565b505050565b5b81811015620002c957620002bd6000826200028a565b600181019050620002a7565b5050565b601f8211156200031857620002e2816200018c565b620002ed84620001a1565b81016020851015620002fd578190505b620003156200030c85620001a1565b830182620002a6565b50505b505050565b600082821c905092915050565b60006200033d600019846008026200031d565b1980831691505092915050565b60006200035883836200032a565b9150826002028217905092915050565b6200037382620000ee565b67ffffffffffffffff8111156200038f576200038e620000f9565b5b6200039b825462000157565b620003a8828285620002cd565b600060209050601f831160018114620003e05760008415620003cb578287015190505b620003d785826200034a565b86555062000447565b601f198416620003f0866200018c565b60005b828110156200041a57848901518255600182019150602085019450602081019050620003f3565b868310156200043a578489015162000436601f8916826200032a565b8355505b6001600288020188555050505b505050505050565b614a91806200045f6000396000f3fe6080604052600436106101355760003560e01c806370a08231116100ab578063b88d4fde1161006f578063b88d4fde1461043d578063baef978714610466578063c87b56dd14610496578063c9df9081146104d3578063d8cb55e3146104fc578063e985e9c51461052757610135565b806370a082311461034657806374bde7ea1461038357806376856319146103ac57806395d89b41146103e9578063a22cb4651461041457610135565b806323b872dd116100fd57806323b872dd146102335780633b47a9ac1461025c57806342842e0e1461028757806342b23193146102b0578063497a9850146102e05780636352211e1461030957610135565b806301ffc9a71461013a57806306fdde0314610177578063081812fc146101a257806308ffc4a9146101df578063095ea7b31461020a575b600080fd5b34801561014657600080fd5b50610161600480360381019061015c919061314d565b610564565b60405161016e9190613195565b60405180910390f35b34801561018357600080fd5b5061018c6105c5565b6040516101999190613240565b60405180910390f35b3480156101ae57600080fd5b506101c960048036038101906101c49190613298565b610657565b6040516101d69190613306565b60405180910390f35b3480156101eb57600080fd5b506101f461069d565b60405161020191906135f5565b60405180910390f35b34801561021657600080fd5b50610231600480360381019061022c9190613643565b610b3f565b005b34801561023f57600080fd5b5061025a60048036038101906102559190613683565b610c56565b005b34801561026857600080fd5b50610271610cb6565b60405161027e91906135f5565b60405180910390f35b34801561029357600080fd5b506102ae60048036038101906102a99190613683565b6110fe565b005b6102ca60048036038101906102c59190613716565b61111e565b6040516102d79190613765565b60405180910390f35b3480156102ec57600080fd5b50610307600480360381019061030291906138b5565b611213565b005b34801561031557600080fd5b50610330600480360381019061032b9190613298565b611251565b60405161033d9190613306565b60405180910390f35b34801561035257600080fd5b5061036d6004803603810190610368919061395c565b6112d7565b60405161037a9190613765565b60405180910390f35b34801561038f57600080fd5b506103aa60048036038101906103a59190613298565b61138e565b005b3480156103b857600080fd5b506103d360048036038101906103ce9190613298565b6113bf565b6040516103e09190613a63565b60405180910390f35b3480156103f557600080fd5b506103fe6116fb565b60405161040b9190613240565b60405180910390f35b34801561042057600080fd5b5061043b60048036038101906104369190613ab1565b61178d565b005b34801561044957600080fd5b50610464600480360381019061045f9190613b92565b6117a3565b005b610480600480360381019061047b9190613298565b611805565b60405161048d9190613195565b60405180910390f35b3480156104a257600080fd5b506104bd60048036038101906104b89190613298565b611904565b6040516104ca9190613240565b60405180910390f35b3480156104df57600080fd5b506104fa60048036038101906104f59190613298565b611a16565b005b34801561050857600080fd5b50610511611a47565b60405161051e91906135f5565b60405180910390f35b34801561053357600080fd5b5061054e60048036038101906105499190613c15565b611e8f565b60405161055b9190613195565b60405180910390f35b6000634906490660e01b7bffffffffffffffffffffffffffffffffffffffffffffffffffffffff1916827bffffffffffffffffffffffffffffffffffffffffffffffffffffffff191614806105be57506105bd82611f39565b5b9050919050565b6060600080546105d490613c84565b80601f016020809104026020016040519081016040528092919081815260200182805461060090613c84565b801561064d5780601f106106225761010080835404028352916020019161064d565b820191906000526020600020905b81548152906001019060200180831161063057829003601f168201915b5050505050905090565b60006106628261201b565b6004600083815260200190815260200160002060009054906101000a900473ffffffffffffffffffffffffffffffffffffffff169050919050565b606060006106ab6007612066565b905060008167ffffffffffffffff8111156106c9576106c861378a565b5b60405190808252806020026020018201604052801561070257816020015b6106ef613069565b8152602001906001900390816106e75790505b5090506000600190505b82811015610b36576000600a600083815260200190815260200160002060040180549050905060005b81811015610b21573373ffffffffffffffffffffffffffffffffffffffff16600a6000858152602001908152602001600020600401828154811061077c5761077b613cb5565b5b9060005260206000200160009054906101000a900473ffffffffffffffffffffffffffffffffffffffff1673ffffffffffffffffffffffffffffffffffffffff1603610b0e57600a600084815260200190815260200160002060405180610120016040529081600082015481526020016001820160009054906101000a900473ffffffffffffffffffffffffffffffffffffffff1673ffffffffffffffffffffffffffffffffffffffff1673ffffffffffffffffffffffffffffffffffffffff1681526020016002820160009054906101000a900473ffffffffffffffffffffffffffffffffffffffff1673ffffffffffffffffffffffffffffffffffffffff1673ffffffffffffffffffffffffffffffffffffffff168152602001600382015481526020016004820180548060200260200160405190810160405280929190818152602001828054801561092657602002820191906000526020600020905b8160009054906101000a900473ffffffffffffffffffffffffffffffffffffffff1673ffffffffffffffffffffffffffffffffffffffff16815260200190600101908083116108dc575b505050505081526020016005820154815260200160068201805461094990613c84565b80601f016020809104026020016040519081016040528092919081815260200182805461097590613c84565b80156109c25780601f10610997576101008083540402835291602001916109c2565b820191906000526020600020905b8154815290600101906020018083116109a557829003601f168201915b505050505081526020016007820180546109db90613c84565b80601f0160208091040260200160405190810160405280929190818152602001828054610a0790613c84565b8015610a545780601f10610a2957610100808354040283529160200191610a54565b820191906000526020600020905b815481529060010190602001808311610a3757829003601f168201915b50505050508152602001600882018054610a6d90613c84565b80601f0160208091040260200160405190810160405280929190818152602001828054610a9990613c84565b8015610ae65780601f10610abb57610100808354040283529160200191610ae6565b820191906000526020600020905b815481529060010190602001808311610ac957829003601f168201915b505050505081525050848481518110610b0257610b01613cb5565b5b60200260200101819052505b8080610b1990613d13565b915050610735565b50508080610b2e90613d13565b91505061070c565b50809250505090565b6000610b4a82611251565b90508073ffffffffffffffffffffffffffffffffffffffff168373ffffffffffffffffffffffffffffffffffffffff1603610bba576040517f08c379a0000000000000000000000000000000000000000000000000000000008152600401610bb190613dcd565b60405180910390fd5b8073ffffffffffffffffffffffffffffffffffffffff16610bd9612074565b73ffffffffffffffffffffffffffffffffffffffff161480610c085750610c0781610c02612074565b611e8f565b5b610c47576040517f08c379a0000000000000000000000000000000000000000000000000000000008152600401610c3e90613e5f565b60405180910390fd5b610c51838361207c565b505050565b610c67610c61612074565b82612135565b610ca6576040517f08c379a0000000000000000000000000000000000000000000000000000000008152600401610c9d90613ef1565b60405180910390fd5b610cb18383836121ca565b505050565b60606000610cc46007612066565b905060008167ffffffffffffffff811115610ce257610ce161378a565b5b604051908082528060200260200182016040528015610d1b57816020015b610d08613069565b815260200190600190039081610d005790505b5090506000600190505b828110156110f5573073ffffffffffffffffffffffffffffffffffffffff16600a600083815260200190815260200160002060020160009054906101000a900473ffffffffffffffffffffffffffffffffffffffff1673ffffffffffffffffffffffffffffffffffffffff16036110e257600a600082815260200190815260200160002060405180610120016040529081600082015481526020016001820160009054906101000a900473ffffffffffffffffffffffffffffffffffffffff1673ffffffffffffffffffffffffffffffffffffffff1673ffffffffffffffffffffffffffffffffffffffff1681526020016002820160009054906101000a900473ffffffffffffffffffffffffffffffffffffffff1673ffffffffffffffffffffffffffffffffffffffff1673ffffffffffffffffffffffffffffffffffffffff1681526020016003820154815260200160048201805480602002602001604051908101604052809291908181526020018280548015610efa57602002820191906000526020600020905b8160009054906101000a900473ffffffffffffffffffffffffffffffffffffffff1673ffffffffffffffffffffffffffffffffffffffff1681526020019060010190808311610eb0575b5050505050815260200160058201548152602001600682018054610f1d90613c84565b80601f0160208091040260200160405190810160405280929190818152602001828054610f4990613c84565b8015610f965780601f10610f6b57610100808354040283529160200191610f96565b820191906000526020600020905b815481529060010190602001808311610f7957829003601f168201915b50505050508152602001600782018054610faf90613c84565b80601f0160208091040260200160405190810160405280929190818152602001828054610fdb90613c84565b80156110285780601f10610ffd57610100808354040283529160200191611028565b820191906000526020600020905b81548152906001019060200180831161100b57829003601f168201915b5050505050815260200160088201805461104190613c84565b80601f016020809104026020016040519081016040528092919081815260200182805461106d90613c84565b80156110ba5780601f1061108f576101008083540402835291602001916110ba565b820191906000526020600020905b81548152906001019060200180831161109d57829003601f168201915b5050505050815250508282815181106110d6576110d5613cb5565b5b60200260200101819052505b80806110ed90613d13565b915050610d25565b50809250505090565b611119838383604051806020016040528060008152506117a3565b505050565b600061112a3384612135565b611169576040517f08c379a000000000000000000000000000000000000000000000000000000000815260040161116090613f5d565b60405180910390fd5b6111743330856121ca565b670de0b6b3a7640000346111889190613fac565b600a60008581526020019081526020016000206003018190555030600a600085815260200190815260200160002060020160006101000a81548173ffffffffffffffffffffffffffffffffffffffff021916908373ffffffffffffffffffffffffffffffffffffffff1602179055506112016008611f23565b61120b6008612066565b905092915050565b600061121f6007612066565b905061122b33826124c3565b61123581856126e0565b61124181848487612784565b61124b6007611f23565b50505050565b60008061125d83612963565b9050600073ffffffffffffffffffffffffffffffffffffffff168173ffffffffffffffffffffffffffffffffffffffff16036112ce576040517f08c379a00000000000000000000000000000000000000000000000000000000081526004016112c590614029565b60405180910390fd5b80915050919050565b60008073ffffffffffffffffffffffffffffffffffffffff168273ffffffffffffffffffffffffffffffffffffffff1603611347576040517f08c379a000000000000000000000000000000000000000000000000000000000815260040161133e906140bb565b60405180910390fd5b600360008373ffffffffffffffffffffffffffffffffffffffff1673ffffffffffffffffffffffffffffffffffffffff168152602001908152602001600020549050919050565b6001600a600083815260200190815260200160002060050160008282546113b591906140db565b9250508190555050565b6113c7613069565b600a600083815260200190815260200160002060405180610120016040529081600082015481526020016001820160009054906101000a900473ffffffffffffffffffffffffffffffffffffffff1673ffffffffffffffffffffffffffffffffffffffff1673ffffffffffffffffffffffffffffffffffffffff1681526020016002820160009054906101000a900473ffffffffffffffffffffffffffffffffffffffff1673ffffffffffffffffffffffffffffffffffffffff1673ffffffffffffffffffffffffffffffffffffffff168152602001600382015481526020016004820180548060200260200160405190810160405280929190818152602001828054801561152b57602002820191906000526020600020905b8160009054906101000a900473ffffffffffffffffffffffffffffffffffffffff1673ffffffffffffffffffffffffffffffffffffffff16815260200190600101908083116114e1575b505050505081526020016005820154815260200160068201805461154e90613c84565b80601f016020809104026020016040519081016040528092919081815260200182805461157a90613c84565b80156115c75780601f1061159c576101008083540402835291602001916115c7565b820191906000526020600020905b8154815290600101906020018083116115aa57829003601f168201915b505050505081526020016007820180546115e090613c84565b80601f016020809104026020016040519081016040528092919081815260200182805461160c90613c84565b80156116595780601f1061162e57610100808354040283529160200191611659565b820191906000526020600020905b81548152906001019060200180831161163c57829003601f168201915b5050505050815260200160088201805461167290613c84565b80601f016020809104026020016040519081016040528092919081815260200182805461169e90613c84565b80156116eb5780601f106116c0576101008083540402835291602001916116eb565b820191906000526020600020905b8154815290600101906020018083116116ce57829003601f168201915b5050505050815250509050919050565b60606001805461170a90613c84565b80601f016020809104026020016040519081016040528092919081815260200182805461173690613c84565b80156117835780601f1061175857610100808354040283529160200191611783565b820191906000526020600020905b81548152906001019060200180831161176657829003601f168201915b5050505050905090565b61179f611798612074565b83836129a0565b5050565b6117b46117ae612074565b83612135565b6117f3576040517f08c379a00000000000000000000000000000000000000000000000000000000081526004016117ea90613ef1565b60405180910390fd5b6117ff84848484612b0c565b50505050565b6000600a600083815260200190815260200160002060010160009054906101000a900473ffffffffffffffffffffffffffffffffffffffff1673ffffffffffffffffffffffffffffffffffffffff166108fc349081150290604051600060405180830381858888f19350505050158015611883573d6000803e3d6000fd5b50600a6000838152602001908152602001600020600401339080600181540180825580915050600190039060005260206000200160009091909190916101000a81548173ffffffffffffffffffffffffffffffffffffffff021916908373ffffffffffffffffffffffffffffffffffffffff16021790555060019050919050565b606061190f8261201b565b600060066000848152602001908152602001600020805461192f90613c84565b80601f016020809104026020016040519081016040528092919081815260200182805461195b90613c84565b80156119a85780601f1061197d576101008083540402835291602001916119a8565b820191906000526020600020905b81548152906001019060200180831161198b57829003601f168201915b5050505050905060006119b9612b68565b905060008151036119ce578192505050611a11565b600082511115611a035780826040516020016119eb92919061414b565b60405160208183030381529060405292505050611a11565b611a0c84612b7f565b925050505b919050565b6001600a60008381526020019081526020016000206005016000828254611a3d919061416f565b9250508190555050565b60606000611a556007612066565b905060008167ffffffffffffffff811115611a7357611a7261378a565b5b604051908082528060200260200182016040528015611aac57816020015b611a99613069565b815260200190600190039081611a915790505b5090506000600190505b82811015611e86573373ffffffffffffffffffffffffffffffffffffffff16600a600083815260200190815260200160002060010160009054906101000a900473ffffffffffffffffffffffffffffffffffffffff1673ffffffffffffffffffffffffffffffffffffffff1603611e7357600a600082815260200190815260200160002060405180610120016040529081600082015481526020016001820160009054906101000a900473ffffffffffffffffffffffffffffffffffffffff1673ffffffffffffffffffffffffffffffffffffffff1673ffffffffffffffffffffffffffffffffffffffff1681526020016002820160009054906101000a900473ffffffffffffffffffffffffffffffffffffffff1673ffffffffffffffffffffffffffffffffffffffff1673ffffffffffffffffffffffffffffffffffffffff1681526020016003820154815260200160048201805480602002602001604051908101604052809291908181526020018280548015611c8b57602002820191906000526020600020905b8160009054906101000a900473ffffffffffffffffffffffffffffffffffffffff1673ffffffffffffffffffffffffffffffffffffffff1681526020019060010190808311611c41575b5050505050815260200160058201548152602001600682018054611cae90613c84565b80601f0160208091040260200160405190810160405280929190818152602001828054611cda90613c84565b8015611d275780601f10611cfc57610100808354040283529160200191611d27565b820191906000526020600020905b815481529060010190602001808311611d0a57829003601f168201915b50505050508152602001600782018054611d4090613c84565b80601f0160208091040260200160405190810160405280929190818152602001828054611d6c90613c84565b8015611db95780601f10611d8e57610100808354040283529160200191611db9565b820191906000526020600020905b815481529060010190602001808311611d9c57829003601f168201915b50505050508152602001600882018054611dd290613c84565b80601f0160208091040260200160405190810160405280929190818152602001828054611dfe90613c84565b8015611e4b5780601f10611e2057610100808354040283529160200191611e4b565b820191906000526020600020905b815481529060010190602001808311611e2e57829003601f168201915b505050505081525050828281518110611e6757611e66613cb5565b5b60200260200101819052505b8080611e7e90613d13565b915050611ab6565b50809250505090565b6000600560008473ffffffffffffffffffffffffffffffffffffffff1673ffffffffffffffffffffffffffffffffffffffff16815260200190815260200160002060008373ffffffffffffffffffffffffffffffffffffffff1673ffffffffffffffffffffffffffffffffffffffff16815260200190815260200160002060009054906101000a900460ff16905092915050565b6001816000016000828254019250508190555050565b60007f80ac58cd000000000000000000000000000000000000000000000000000000007bffffffffffffffffffffffffffffffffffffffffffffffffffffffff1916827bffffffffffffffffffffffffffffffffffffffffffffffffffffffff1916148061200457507f5b5e139f000000000000000000000000000000000000000000000000000000007bffffffffffffffffffffffffffffffffffffffffffffffffffffffff1916827bffffffffffffffffffffffffffffffffffffffffffffffffffffffff1916145b80612014575061201382612be7565b5b9050919050565b61202481612c51565b612063576040517f08c379a000000000000000000000000000000000000000000000000000000000815260040161205a90614029565b60405180910390fd5b50565b600081600001549050919050565b600033905090565b816004600083815260200190815260200160002060006101000a81548173ffffffffffffffffffffffffffffffffffffffff021916908373ffffffffffffffffffffffffffffffffffffffff160217905550808273ffffffffffffffffffffffffffffffffffffffff166120ef83611251565b73ffffffffffffffffffffffffffffffffffffffff167f8c5be1e5ebec7d5bd14f71427d1e84f3dd0314c0f7b2291e5b200ac8c7c3b92560405160405180910390a45050565b60008061214183611251565b90508073ffffffffffffffffffffffffffffffffffffffff168473ffffffffffffffffffffffffffffffffffffffff16148061218357506121828185611e8f565b5b806121c157508373ffffffffffffffffffffffffffffffffffffffff166121a984610657565b73ffffffffffffffffffffffffffffffffffffffff16145b91505092915050565b8273ffffffffffffffffffffffffffffffffffffffff166121ea82611251565b73ffffffffffffffffffffffffffffffffffffffff1614612240576040517f08c379a000000000000000000000000000000000000000000000000000000000815260040161223790614215565b60405180910390fd5b600073ffffffffffffffffffffffffffffffffffffffff168273ffffffffffffffffffffffffffffffffffffffff16036122af576040517f08c379a00000000000000000000000000000000000000000000000000000000081526004016122a6906142a7565b60405180910390fd5b6122bc8383836001612c92565b8273ffffffffffffffffffffffffffffffffffffffff166122dc82611251565b73ffffffffffffffffffffffffffffffffffffffff1614612332576040517f08c379a000000000000000000000000000000000000000000000000000000000815260040161232990614215565b60405180910390fd5b6004600082815260200190815260200160002060006101000a81549073ffffffffffffffffffffffffffffffffffffffff02191690556001600360008573ffffffffffffffffffffffffffffffffffffffff1673ffffffffffffffffffffffffffffffffffffffff168152602001908152602001600020600082825403925050819055506001600360008473ffffffffffffffffffffffffffffffffffffffff1673ffffffffffffffffffffffffffffffffffffffff16815260200190815260200160002060008282540192505081905550816002600083815260200190815260200160002060006101000a81548173ffffffffffffffffffffffffffffffffffffffff021916908373ffffffffffffffffffffffffffffffffffffffff160217905550808273ffffffffffffffffffffffffffffffffffffffff168473ffffffffffffffffffffffffffffffffffffffff167fddf252ad1be2c89b69c2b068fc378daa952ba7f163c4a11628f55a4df523b3ef60405160405180910390a46124be8383836001612c98565b505050565b600073ffffffffffffffffffffffffffffffffffffffff168273ffffffffffffffffffffffffffffffffffffffff1603612532576040517f08c379a000000000000000000000000000000000000000000000000000000000815260040161252990614313565b60405180910390fd5b61253b81612c51565b1561257b576040517f08c379a00000000000000000000000000000000000000000000000000000000081526004016125729061437f565b60405180910390fd5b612589600083836001612c92565b61259281612c51565b156125d2576040517f08c379a00000000000000000000000000000000000000000000000000000000081526004016125c99061437f565b60405180910390fd5b6001600360008473ffffffffffffffffffffffffffffffffffffffff1673ffffffffffffffffffffffffffffffffffffffff16815260200190815260200160002060008282540192505081905550816002600083815260200190815260200160002060006101000a81548173ffffffffffffffffffffffffffffffffffffffff021916908373ffffffffffffffffffffffffffffffffffffffff160217905550808273ffffffffffffffffffffffffffffffffffffffff16600073ffffffffffffffffffffffffffffffffffffffff167fddf252ad1be2c89b69c2b068fc378daa952ba7f163c4a11628f55a4df523b3ef60405160405180910390a46126dc600083836001612c98565b5050565b6126e982612c51565b612728576040517f08c379a000000000000000000000000000000000000000000000000000000000815260040161271f90614411565b60405180910390fd5b8060066000848152602001908152602001600020908161274891906145dd565b507ff8e1a15aba9398e019f0b49df1a4fde98ee17ae345cb5f6b5e2c27f5033e8ce7826040516127789190613765565b60405180910390a15050565b83600a60008681526020019081526020016000206000018190555033600a600086815260200190815260200160002060010160006101000a81548173ffffffffffffffffffffffffffffffffffffffff021916908373ffffffffffffffffffffffffffffffffffffffff16021790555033600a600086815260200190815260200160002060020160006101000a81548173ffffffffffffffffffffffffffffffffffffffff021916908373ffffffffffffffffffffffffffffffffffffffff1602179055506000600a6000868152602001908152602001600020600301819055506001600a60008681526020019081526020016000206005018190555082600a600086815260200190815260200160002060060190816128a491906145dd565b5081600a600086815260200190815260200160002060070190816128c891906145dd565b5080600a600086815260200190815260200160002060080190816128ec91906145dd565b50837f6b0636364e6bb3c1836823c4035fa96c342686af76b1ec221f6fec7b83fc272033336000600a60008a8152602001908152602001600020600401600a60008b815260200190815260200160002060050154898960405161295597969594939291906147f6565b60405180910390a250505050565b60006002600083815260200190815260200160002060009054906101000a900473ffffffffffffffffffffffffffffffffffffffff169050919050565b8173ffffffffffffffffffffffffffffffffffffffff168373ffffffffffffffffffffffffffffffffffffffff1603612a0e576040517f08c379a0000000000000000000000000000000000000000000000000000000008152600401612a05906148c6565b60405180910390fd5b80600560008573ffffffffffffffffffffffffffffffffffffffff1673ffffffffffffffffffffffffffffffffffffffff16815260200190815260200160002060008473ffffffffffffffffffffffffffffffffffffffff1673ffffffffffffffffffffffffffffffffffffffff16815260200190815260200160002060006101000a81548160ff0219169083151502179055508173ffffffffffffffffffffffffffffffffffffffff168373ffffffffffffffffffffffffffffffffffffffff167f17307eab39ab6107e8899845ad3d59bd9653f200f220920489ca2b5937696c3183604051612aff9190613195565b60405180910390a3505050565b612b178484846121ca565b612b2384848484612c9e565b612b62576040517f08c379a0000000000000000000000000000000000000000000000000000000008152600401612b5990614958565b60405180910390fd5b50505050565b606060405180602001604052806000815250905090565b6060612b8a8261201b565b6000612b94612b68565b90506000815111612bb45760405180602001604052806000815250612bdf565b80612bbe84612e25565b604051602001612bcf92919061414b565b6040516020818303038152906040525b915050919050565b60007f01ffc9a7000000000000000000000000000000000000000000000000000000007bffffffffffffffffffffffffffffffffffffffffffffffffffffffff1916827bffffffffffffffffffffffffffffffffffffffffffffffffffffffff1916149050919050565b60008073ffffffffffffffffffffffffffffffffffffffff16612c7383612963565b73ffffffffffffffffffffffffffffffffffffffff1614159050919050565b50505050565b50505050565b6000612cbf8473ffffffffffffffffffffffffffffffffffffffff16612ef3565b15612e18578373ffffffffffffffffffffffffffffffffffffffff1663150b7a02612ce8612074565b8786866040518563ffffffff1660e01b8152600401612d0a94939291906149cd565b6020604051808303816000875af1925050508015612d4657506040513d601f19601f82011682018060405250810190612d439190614a2e565b60015b612dc8573d8060008114612d76576040519150601f19603f3d011682016040523d82523d6000602084013e612d7b565b606091505b506000815103612dc0576040517f08c379a0000000000000000000000000000000000000000000000000000000008152600401612db790614958565b60405180910390fd5b805181602001fd5b63150b7a0260e01b7bffffffffffffffffffffffffffffffffffffffffffffffffffffffff1916817bffffffffffffffffffffffffffffffffffffffffffffffffffffffff191614915050612e1d565b600190505b949350505050565b606060006001612e3484612f16565b01905060008167ffffffffffffffff811115612e5357612e5261378a565b5b6040519080825280601f01601f191660200182016040528015612e855781602001600182028036833780820191505090505b509050600082602001820190505b600115612ee8578080600190039150507f3031323334353637383961626364656600000000000000000000000000000000600a86061a8153600a8581612edc57612edb613f7d565b5b04945060008503612e93575b819350505050919050565b6000808273ffffffffffffffffffffffffffffffffffffffff163b119050919050565b600080600090507a184f03e93ff9f4daa797ed6e38ed64bf6a1f0100000000000000008310612f74577a184f03e93ff9f4daa797ed6e38ed64bf6a1f0100000000000000008381612f6a57612f69613f7d565b5b0492506040810190505b6d04ee2d6d415b85acef81000000008310612fb1576d04ee2d6d415b85acef81000000008381612fa757612fa6613f7d565b5b0492506020810190505b662386f26fc100008310612fe057662386f26fc100008381612fd657612fd5613f7d565b5b0492506010810190505b6305f5e1008310613009576305f5e1008381612fff57612ffe613f7d565b5b0492506008810190505b612710831061302e57612710838161302457613023613f7d565b5b0492506004810190505b60648310613051576064838161304757613046613f7d565b5b0492506002810190505b600a8310613060576001810190505b80915050919050565b60405180610120016040528060008152602001600073ffffffffffffffffffffffffffffffffffffffff168152602001600073ffffffffffffffffffffffffffffffffffffffff1681526020016000815260200160608152602001600081526020016060815260200160608152602001606081525090565b6000604051905090565b600080fd5b600080fd5b60007fffffffff0000000000000000000000000000000000000000000000000000000082169050919050565b61312a816130f5565b811461313557600080fd5b50565b60008135905061314781613121565b92915050565b600060208284031215613163576131626130eb565b5b600061317184828501613138565b91505092915050565b60008115159050919050565b61318f8161317a565b82525050565b60006020820190506131aa6000830184613186565b92915050565b600081519050919050565b600082825260208201905092915050565b60005b838110156131ea5780820151818401526020810190506131cf565b60008484015250505050565b6000601f19601f8301169050919050565b6000613212826131b0565b61321c81856131bb565b935061322c8185602086016131cc565b613235816131f6565b840191505092915050565b6000602082019050818103600083015261325a8184613207565b905092915050565b6000819050919050565b61327581613262565b811461328057600080fd5b50565b6000813590506132928161326c565b92915050565b6000602082840312156132ae576132ad6130eb565b5b60006132bc84828501613283565b91505092915050565b600073ffffffffffffffffffffffffffffffffffffffff82169050919050565b60006132f0826132c5565b9050919050565b613300816132e5565b82525050565b600060208201905061331b60008301846132f7565b92915050565b600081519050919050565b600082825260208201905092915050565b6000819050602082019050919050565b61335681613262565b82525050565b6000613367826132c5565b9050919050565b6133778161335c565b82525050565b600081519050919050565b600082825260208201905092915050565b6000819050602082019050919050565b6133b2816132e5565b82525050565b60006133c483836133a9565b60208301905092915050565b6000602082019050919050565b60006133e88261337d565b6133f28185613388565b93506133fd83613399565b8060005b8381101561342e57815161341588826133b8565b9750613420836133d0565b925050600181019050613401565b5085935050505092915050565b600082825260208201905092915050565b6000613457826131b0565b613461818561343b565b93506134718185602086016131cc565b61347a816131f6565b840191505092915050565b60006101208301600083015161349e600086018261334d565b5060208301516134b1602086018261336e565b5060408301516134c4604086018261336e565b5060608301516134d7606086018261334d565b50608083015184820360808601526134ef82826133dd565b91505060a083015161350460a086018261334d565b5060c083015184820360c086015261351c828261344c565b91505060e083015184820360e0860152613536828261344c565b915050610100830151848203610100860152613552828261344c565b9150508091505092915050565b600061356b8383613485565b905092915050565b6000602082019050919050565b600061358b82613321565b613595818561332c565b9350836020820285016135a78561333d565b8060005b858110156135e357848403895281516135c4858261355f565b94506135cf83613573565b925060208a019950506001810190506135ab565b50829750879550505050505092915050565b6000602082019050818103600083015261360f8184613580565b905092915050565b613620816132e5565b811461362b57600080fd5b50565b60008135905061363d81613617565b92915050565b6000806040838503121561365a576136596130eb565b5b60006136688582860161362e565b925050602061367985828601613283565b9150509250929050565b60008060006060848603121561369c5761369b6130eb565b5b60006136aa8682870161362e565b93505060206136bb8682870161362e565b92505060406136cc86828701613283565b9150509250925092565b600067ffffffffffffffff82169050919050565b6136f3816136d6565b81146136fe57600080fd5b50565b600081359050613710816136ea565b92915050565b6000806040838503121561372d5761372c6130eb565b5b600061373b85828601613283565b925050602061374c85828601613701565b9150509250929050565b61375f81613262565b82525050565b600060208201905061377a6000830184613756565b92915050565b600080fd5b600080fd5b7f4e487b7100000000000000000000000000000000000000000000000000000000600052604160045260246000fd5b6137c2826131f6565b810181811067ffffffffffffffff821117156137e1576137e061378a565b5b80604052505050565b60006137f46130e1565b905061380082826137b9565b919050565b600067ffffffffffffffff8211156138205761381f61378a565b5b613829826131f6565b9050602081019050919050565b82818337600083830152505050565b600061385861385384613805565b6137ea565b90508281526020810184848401111561387457613873613785565b5b61387f848285613836565b509392505050565b600082601f83011261389c5761389b613780565b5b81356138ac848260208601613845565b91505092915050565b6000806000606084860312156138ce576138cd6130eb565b5b600084013567ffffffffffffffff8111156138ec576138eb6130f0565b5b6138f886828701613887565b935050602084013567ffffffffffffffff811115613919576139186130f0565b5b61392586828701613887565b925050604084013567ffffffffffffffff811115613946576139456130f0565b5b61395286828701613887565b9150509250925092565b600060208284031215613972576139716130eb565b5b60006139808482850161362e565b91505092915050565b6000610120830160008301516139a2600086018261334d565b5060208301516139b5602086018261336e565b5060408301516139c8604086018261336e565b5060608301516139db606086018261334d565b50608083015184820360808601526139f382826133dd565b91505060a0830151613a0860a086018261334d565b5060c083015184820360c0860152613a20828261344c565b91505060e083015184820360e0860152613a3a828261344c565b915050610100830151848203610100860152613a56828261344c565b9150508091505092915050565b60006020820190508181036000830152613a7d8184613989565b905092915050565b613a8e8161317a565b8114613a9957600080fd5b50565b600081359050613aab81613a85565b92915050565b60008060408385031215613ac857613ac76130eb565b5b6000613ad68582860161362e565b9250506020613ae785828601613a9c565b9150509250929050565b600067ffffffffffffffff821115613b0c57613b0b61378a565b5b613b15826131f6565b9050602081019050919050565b6000613b35613b3084613af1565b6137ea565b905082815260208101848484011115613b5157613b50613785565b5b613b5c848285613836565b509392505050565b600082601f830112613b7957613b78613780565b5b8135613b89848260208601613b22565b91505092915050565b60008060008060808587031215613bac57613bab6130eb565b5b6000613bba8782880161362e565b9450506020613bcb8782880161362e565b9350506040613bdc87828801613283565b925050606085013567ffffffffffffffff811115613bfd57613bfc6130f0565b5b613c0987828801613b64565b91505092959194509250565b60008060408385031215613c2c57613c2b6130eb565b5b6000613c3a8582860161362e565b9250506020613c4b8582860161362e565b9150509250929050565b7f4e487b7100000000000000000000000000000000000000000000000000000000600052602260045260246000fd5b60006002820490506001821680613c9c57607f821691505b602082108103613caf57613cae613c55565b5b50919050565b7f4e487b7100000000000000000000000000000000000000000000000000000000600052603260045260246000fd5b7f4e487b7100000000000000000000000000000000000000000000000000000000600052601160045260246000fd5b6000613d1e82613262565b91507fffffffffffffffffffffffffffffffffffffffffffffffffffffffffffffffff8203613d5057613d4f613ce4565b5b600182019050919050565b7f4552433732313a20617070726f76616c20746f2063757272656e74206f776e6560008201527f7200000000000000000000000000000000000000000000000000000000000000602082015250565b6000613db76021836131bb565b9150613dc282613d5b565b604082019050919050565b60006020820190508181036000830152613de681613daa565b9050919050565b7f4552433732313a20617070726f76652063616c6c6572206973206e6f7420746f60008201527f6b656e206f776e6572206f7220617070726f76656420666f7220616c6c000000602082015250565b6000613e49603d836131bb565b9150613e5482613ded565b604082019050919050565b60006020820190508181036000830152613e7881613e3c565b9050919050565b7f4552433732313a2063616c6c6572206973206e6f7420746f6b656e206f776e6560008201527f72206f7220617070726f76656400000000000000000000000000000000000000602082015250565b6000613edb602d836131bb565b9150613ee682613e7f565b604082019050919050565b60006020820190508181036000830152613f0a81613ece565b9050919050565b7f4f6e6c79204e4654206f776e65722063616e20706572666f726d207468697300600082015250565b6000613f47601f836131bb565b9150613f5282613f11565b602082019050919050565b60006020820190508181036000830152613f7681613f3a565b9050919050565b7f4e487b7100000000000000000000000000000000000000000000000000000000600052601260045260246000fd5b6000613fb782613262565b9150613fc283613262565b925082613fd257613fd1613f7d565b5b828204905092915050565b7f4552433732313a20696e76616c696420746f6b656e2049440000000000000000600082015250565b60006140136018836131bb565b915061401e82613fdd565b602082019050919050565b6000602082019050818103600083015261404281614006565b9050919050565b7f4552433732313a2061646472657373207a65726f206973206e6f74206120766160008201527f6c6964206f776e65720000000000000000000000000000000000000000000000602082015250565b60006140a56029836131bb565b91506140b082614049565b604082019050919050565b600060208201905081810360008301526140d481614098565b9050919050565b60006140e682613262565b91506140f183613262565b925082820390508181111561410957614108613ce4565b5b92915050565b600081905092915050565b6000614125826131b0565b61412f818561410f565b935061413f8185602086016131cc565b80840191505092915050565b6000614157828561411a565b9150614163828461411a565b91508190509392505050565b600061417a82613262565b915061418583613262565b925082820190508082111561419d5761419c613ce4565b5b92915050565b7f4552433732313a207472616e736665722066726f6d20696e636f72726563742060008201527f6f776e6572000000000000000000000000000000000000000000000000000000602082015250565b60006141ff6025836131bb565b915061420a826141a3565b604082019050919050565b6000602082019050818103600083015261422e816141f2565b9050919050565b7f4552433732313a207472616e7366657220746f20746865207a65726f2061646460008201527f7265737300000000000000000000000000000000000000000000000000000000602082015250565b60006142916024836131bb565b915061429c82614235565b604082019050919050565b600060208201905081810360008301526142c081614284565b9050919050565b7f4552433732313a206d696e7420746f20746865207a65726f2061646472657373600082015250565b60006142fd6020836131bb565b9150614308826142c7565b602082019050919050565b6000602082019050818103600083015261432c816142f0565b9050919050565b7f4552433732313a20746f6b656e20616c7265616479206d696e74656400000000600082015250565b6000614369601c836131bb565b915061437482614333565b602082019050919050565b600060208201905081810360008301526143988161435c565b9050919050565b7f45524337323155524953746f726167653a2055524920736574206f66206e6f6e60008201527f6578697374656e7420746f6b656e000000000000000000000000000000000000602082015250565b60006143fb602e836131bb565b91506144068261439f565b604082019050919050565b6000602082019050818103600083015261442a816143ee565b9050919050565b60008190508160005260206000209050919050565b60006020601f8301049050919050565b600082821b905092915050565b6000600883026144937fffffffffffffffffffffffffffffffffffffffffffffffffffffffffffffffff82614456565b61449d8683614456565b95508019841693508086168417925050509392505050565b6000819050919050565b60006144da6144d56144d084613262565b6144b5565b613262565b9050919050565b6000819050919050565b6144f4836144bf565b614508614500826144e1565b848454614463565b825550505050565b600090565b61451d614510565b6145288184846144eb565b505050565b5b8181101561454c57614541600082614515565b60018101905061452e565b5050565b601f8211156145915761456281614431565b61456b84614446565b8101602085101561457a578190505b61458e61458685614446565b83018261452d565b50505b505050565b600082821c905092915050565b60006145b460001984600802614596565b1980831691505092915050565b60006145cd83836145a3565b9150826002028217905092915050565b6145e6826131b0565b67ffffffffffffffff8111156145ff576145fe61378a565b5b6146098254613c84565b614614828285614550565b600060209050601f8311600181146146475760008415614635578287015190505b61463f85826145c1565b8655506146a7565b601f19841661465586614431565b60005b8281101561467d57848901518255600182019150602085019450602081019050614658565b8683101561469a5784890151614696601f8916826145a3565b8355505b6001600288020188555050505b505050505050565b6146b88161335c565b82525050565b6000819050919050565b60006146e36146de6146d9846146be565b6144b5565b613262565b9050919050565b6146f3816146c8565b82525050565b600081549050919050565b600082825260208201905092915050565b60008190508160005260206000209050919050565b60008160001c9050919050565b600073ffffffffffffffffffffffffffffffffffffffff82169050919050565b600061476a6147658361472a565b614737565b9050919050565b600061477d8254614757565b9050919050565b6000600182019050919050565b600061479c826146f9565b6147a68185614704565b93506147b183614715565b8060005b838110156147e9576147c682614771565b6147d088826133b8565b97506147db83614784565b9250506001810190506147b5565b5085935050505092915050565b600060e08201905061480b600083018a6146af565b61481860208301896146af565b61482560408301886146ea565b81810360608301526148378187614791565b90506148466080830186613756565b81810360a08301526148588185613207565b905081810360c083015261486c8184613207565b905098975050505050505050565b7f4552433732313a20617070726f766520746f2063616c6c657200000000000000600082015250565b60006148b06019836131bb565b91506148bb8261487a565b602082019050919050565b600060208201905081810360008301526148df816148a3565b9050919050565b7f4552433732313a207472616e7366657220746f206e6f6e20455243373231526560008201527f63656976657220696d706c656d656e7465720000000000000000000000000000602082015250565b60006149426032836131bb565b915061494d826148e6565b604082019050919050565b6000602082019050818103600083015261497181614935565b9050919050565b600081519050919050565b600082825260208201905092915050565b600061499f82614978565b6149a98185614983565b93506149b98185602086016131cc565b6149c2816131f6565b840191505092915050565b60006080820190506149e260008301876132f7565b6149ef60208301866132f7565b6149fc6040830185613756565b8181036060830152614a0e8184614994565b905095945050505050565b600081519050614a2881613121565b92915050565b600060208284031215614a4457614a436130eb565b5b6000614a5284828501614a19565b9150509291505056fea26469706673582212200d07c89dda552e8c2149602edda114ecfa4d2e6b34a3434f5c3692683075725a64736f6c63430008110033",
    "linkReferences": {},
    "deployedLinkReferences": {}
}